:100000000C943E000C9448000C9448000C9448005A
:100010000C9448000C9448000C9448000C94480040
:100020000C9448000C9448000C9448000C94480030
:100030000C9448000C9448000C9448000C94480020
:100040000C9448000C9448000C9448000C94480010
:100050000C9448000C9448000C9448000C94480000
:100060000C9448000C9448000C9448000C944800F0
:100070000C9448000C9448000C94480011241FBEB6
:10008000CFEFD8E0DEBFCDBF0E944A000C947400D1
:100090000C9400008FEF81B981E082B94A9BFDCFBB
:1000A000E3ECF9E03197F1F700C000004A9BF5CF8F
:1000B00090E080E048EB5BE062E0FA01E81BF90BBE
:1000C00030E020E02E173F0724F462B92F5F3F4F46
:1000D000F9CF30E020E08217930721F012B82F5FAC
:0C00E0003F4FF9CF0396E9CFF894FFCF13
:00000001FF
