:100000000C943E000C9461000C9450000C94500031
:100010000C9450000C9450000C9450000C94500020
:100020000C9450000C9450000C9450000C94500010
:100030000C9450000C9452000C9450000C945000FE
:100040000C9450000C9450000C9450000C945000F0
:100050000C9450000C9450000C9450000C945000E0
:100060000C9450000C9450000C9450000C945000D0
:100070000C9450000C9450000C94500011241FBE9E
:10008000CFEFD8E0DEBFCDBF21E0A0E0B1E001C0FE
:100090001D92A230B207E1F70E949B000C94C800A9
:1000A0000C9400001F920F920FB60F9211248F93A1
:1000B00081E0809301018F910F900FBE0F901F90F0
:1000C00018951F920F920FB60F9211248F939F9342
:1000D00081E0809300018FE19EE40197F1F700C079
:1000E0000000E09A9F918F910F900FBE0F901F908C
:1000F000189510920101109285001092840090933F
:1001000089008093880080E88093800080E4809359
:1001100081001092820082E080936F000895F8942D
:100120001AB88FEF81B9E89AE9E6F0E08081826041
:100130008083789408950E948F0091E012B82FEF89
:1001400033E284EF215030408040E1F700C00000EE
:1001500092B92FEF30E782E0215030408040E1F744
:1001600000C0000080910101811104C08091000154
:10017000882321F3F89480910101882331F0809144
:100180000001882311F081E082B990E080E00895B9
:04019000F894FFCF11
:00000001FF
