:100000000C943E000C945B000C945B000C945B0021
:100010000C945B000C945B000C945B000C945B00F4
:100020000C945B000C945B000C945B000C945B00E4
:100030000C945B000C945B000C945B000C945B00D4
:100040000C945B000C945B000C945B000C945B00C4
:100050000C945B000C945B000C945B000C945B00B4
:100060000C945B000C945B000C945B000C945B00A4
:100070000C945B000C945B000C945B0011241FBE7D
:10008000CFEFD8E0DEBFCDBF11E0A0E0B1E0EEEDF4
:10009000F4E002C005900D92AC30B107D9F721E031
:1000A000ACE0B1E001C01D92AD30B207E1F70E94B3
:1000B00055020C946D020C9400008FEF84B90895E2
:1000C0001092C5008FEC8093C400E0ECF0E08081DA
:1000D000806C8083E1ECF0E0808188618083E2ECD9
:1000E000F0E080818260808308958091C00085FF68
:1000F000FCCF6093C6000895EF92FF920F931F9379
:10010000CF93DF9300D0CDB7DEB77C010E946000B3
:10011000CE0102960E94B60010E000E0AE014F5FF3
:100120005F4FB801CE0102960E94C6006981C701E7
:100130000E9475000F5F1F4F89818F3F79F7CE01B5
:1001400002960E94AC000F900F90DF91CF911F910B
:100150000F91FF90EF900895089580EA8093000139
:100160001092B90080E28093B800089520E8FC0165
:1001700020830C94AD00982F9370891305C0880FCD
:10018000806A8093000108958FEF089594EA24E82F
:100190009093BC008091BC0087FFFCCF8091000150
:1001A0008093BB002093BC008091BC0087FFFCCFF4
:1001B0008091B900883161F784EA8093BC00809116
:1001C000BC0087FFFCCF809100018093BB0084E8D6
:1001D0008093BC008091BC0087FFFCCF7093BB0074
:1001E00084E88093BC008091BC0087FFFCCF6093C3
:1001F000BB0084E88093BC008091BC0087FFFCCFEB
:100200008091BC0087FFFCCF84EA8093BC00809182
:10021000BC0087FFFCCF809100018F5F8093BB0003
:1002200084E88093BC008091BC0087FFFCCF84E809
:100230008093BC008091BC0087FFFCCF8091BB0005
:10024000FA01808384E98093BC0080E0089594EAF9
:1002500034E89093BC008091BC0087FFFCCF809174
:1002600000018093BB003093BC008091BC0087FFED
:10027000FCCF8091B900883161F784EA8093BC009B
:100280008091BC0087FFFCCF809100018093BB0070
:1002900084E88093BC008091BC0087FFFCCF709302
:1002A000BB0084E88093BC008091BC0087FFFCCF3A
:1002B0006093BB0084E88093BC008091BC0087FF02
:1002C000FCCF84EA8093BC008091BC0087FFFCCF08
:1002D000809100018F5F8093BB0084E88093BC0015
:1002E0008091BC0087FFFCCFFA0184EC222371F0DF
:1002F000213009F484E88093BC009091BC0097FF02
:10030000FCCF9091BB0091932150F0CF84E9809372
:10031000BC0080E0089594EA24E89093BC008091AA
:10032000BC0087FFFCCF809100018093BB0020932D
:10033000BC008091BC0087FFFCCF8091B900883160
:1003400061F784EA8093BC008091BC0087FFFCCFFA
:10035000809100018093BB0084E88093BC00809171
:10036000BC0087FFFCCF7093BB0084E88093BC0087
:100370008091BC0087FFFCCF6093BB0084E8809332
:10038000BC008091BC0087FFFCCF4093BB0084E899
:100390008093BC008091BC0087FFFCCF84E98093F0
:1003A000BC0080E00895260F372F311DFC018081AD
:1003B0008150990B862B972B2817390718F09C0131
:1003C0002F5F3F4F822F861B24EA34E82093BC0026
:1003D0009091BC0097FFFCCF909100019093BB00DF
:1003E0003093BC009091BC0097FFFCCF9091B90076
:1003F000983161F794EA9093BC009091BC0097FF0C
:10040000FCCF909100019093BB0094E89093BC00C6
:100410009091BC0097FFFCCF7093BB0094E8909341
:10042000BC009091BC0097FFFCCF6093BB0094E8A8
:100430009093BC009091BC0097FFFCCFFA01982FDD
:1004400024E8992359F031913093BB002093BC00EC
:100450003091BC0037FFFCCF9150F3CF94E99093DB
:10046000BC000895CF92DF92EF92FF920F931F93FB
:10047000CF936C017B018A01C22F2C2FA801B701F9
:10048000C6010E94D301282F30E0E20EF31EC81BE4
:10049000020F131FC111F1CF80E0CF911F910F9177
:1004A000FF90EF90DF90CF900895CF93DF938FEF81
:1004B00084B98CE091E00E946000C1E0D1E06991D4
:1004C0008CE091E00E94750081E0CA30D807B9F74E
:0E04D00090E080E0DF91CF910895F894FFCF87
:0C04DE00A041444C464B5344464B0000E8
:00000001FF
