:100000000C943E000C9463000C9450000C9450002F
:100010000C9450000C9450000C9450000C94500020
:100020000C9450000C9450000C9450000C94500010
:100030000C9450000C9450000C9450000C94500000
:100040000C9450000C9450000C9450000C945000F0
:100050000C9450000C9450000C9450000C945000E0
:100060000C9450000C9450000C9450000C945000D0
:100070000C9450000C9450000C94500011241FBE9E
:10008000CFEFD8E0DEBFCDBF21E0A0E0B1E001C0FE
:100090001D92A130B207E1F70E9492000C94BC00BF
:1000A0000C94000081E082B98FE99FE00197F1F79D
:1000B00000C0000082E082B98FEC97E00197F1F771
:1000C00000C0000008951F920F920FB60F921124E6
:1000D0008F939F938FE59AEE0197F1F700C0000090
:1000E00080910001853051F410920001E09A9F91B7
:1000F0008F910F900FBE0F901F9018958091000167
:100100008F5F80930001F2CFF8941AB88FEF81B916
:1001100082E082B9E89AE9E6F0E08081816080833C
:10012000789408950E948400C2E0D1E0809100019B
:100130008330A1F030F4813061F08230B9F7D2B968
:10014000F5CF8430A9F0853089F74A9B13C0D2B926
:10015000FCCF4A9B07C00E945200FBCF4A9B02C0C3
:10016000C2B9FCCF809100018F5F80930001DECF88
:0C01700012B8DCCFC2B9DACFF894FFCF90
:00000001FF
