:100000000C943E000C9448000C9448000C9448005A
:100010000C9448000C9448000C9448000C94480040
:100020000C9448000C9448000C9448000C94480030
:100030000C9448000C9448000C9448000C94480020
:100040000C9448000C9448000C9448000C94480010
:100050000C9448000C9448000C9448000C94480000
:100060000C9448000C9448000C9448000C944800F0
:100070000C9448000C9448000C94480011241FBEB6
:10008000CFEFD8E0DEBFCDBF0E9483000C94D50136
:100090000C940000F8948FEF8AB981B97894089590
:1000A000CF92DF92EF92FF9269017A011092850060
:1000B0001092840020E030E04FE753E40E944001BA
:1000C0000E94E80070E0709389006093880020E04F
:1000D00030E04FE753E4C701B6010E9440010E949F
:1000E000E80070E070938B0060938A0081EA80934F
:1000F000800082E08093810010928200FF90EF9058
:10010000DF90CF9008950E944A0020E030E0A901DE
:10011000CA01B9010E9450002FEF83ED90E32150F6
:1001200080409040E1F700C0000020E030E040E473
:100130005FE360E070E080E89EE30E9450002FEFF4
:1001400083ED90E3215080409040E1F700C0000033
:1001500020E030E040E05FE3CA01B9010E945000B6
:100160002FEF83ED90E3215080409040E1F700C0F5
:10017000000020E030E040E85EE360E070E080E412
:100180009FE30E9450002FEF83ED90E321508040C9
:100190009040E1F700C0000020E030E0A90160E0FD
:1001A00070E080E89FE30E9450002FEF83ED90E322
:1001B000215080409040E1F700C0000020E030E096
:1001C000A901CA01B9010E94500090E080E00895A1
:1001D0000E941F0188F09F5798F0B92F9927B751B7
:1001E000B0F0E1F0660F771F881F991F1AF0BA95DB
:1001F000C9F714C0B13091F00E943901B1E00895FF
:100200000C943901672F782F8827B85F39F0B93FF0
:10021000CCF3869577956795B395D9F73EF490958D
:100220008095709561957F4F8F4F9F4F089557FD33
:100230009058440F551F59F05F3F71F04795880F54
:1002400097FB991F61F09F3F79F0879508951216EB
:1002500013061406551FF2CF4695F1DF08C0161697
:1002600017061806991FF1CF869571056105089448
:100270000895E894BB2766277727CB0197F908955F
:100280000E9453010C94C4010E94B60138F00E94F0
:10029000BD0120F0952311F00C94AD010C94B30135
:1002A00011240C943A010E94170170F3959FC1F339
:1002B000950F50E0551F629FF001729FBB27F00D14
:1002C000B11D639FAA27F00DB11DAA1F649F662769
:1002D000B00DA11D661F829F2227B00DA11D621FB8
:1002E000739FB00DA11D621F839FA00D611D221F72
:1002F000749F3327A00D611D231F849F600D211D56
:10030000822F762F6A2F11249F5750409AF0F1F0D8
:1003100088234AF0EE0FFF1FBB1F661F771F881F41
:1003200091505040A9F79E3F510580F00C94AD01CB
:100330000C943A015F3FE4F3983ED4F386957795A9
:100340006795B795F795E7959F5FC1F7FE2B880FE7
:10035000911D9695879597F9089597F99F6780E87D
:1003600070E060E008959FEF80EC089500240A9407
:100370001616170618060906089500240A94121680
:100380001306140605060895092E0394000C11F4B3
:10039000882352F0BB0F40F4BF2B11F460FF04C060
:0E03A0006F5F7F4F8F4F9F4F0895F894FFCFF0
:00000001FF
