:100000000C943E000C9448000C9448000C9448005A
:100010000C9448000C9448000C9448000C94480040
:100020000C9448000C9448000C9448000C94480030
:100030000C9448000C9448000C9448000C94480020
:100040000C9448000C9448000C9448000C94480010
:100050000C9448000C9448000C9448000C94480000
:100060000C9448000C9448000C9448000C944800F0
:100070000C9448000C9448000C94480011241FBEB6
:10008000CFEFD8E0DEBFCDBF0E944A000C946C00D9
:100090000C9400008FEF84B921E032E04A9BFECF40
:1000A0008FE19EE40197F1F700C000004A9BF6CF74
:1000B0008AE090E025B9EFE9FFE03197F1F700C061
:1000C000000035B9EFECF7E03197F1F700C0000020
:0C00D000019781F715B8EACFF894FFCF34
:00000001FF
