:100000000C943E000C9453000C9453000C94530039
:100010000C9453000C9453000C9453000C94530014
:100020000C9453000C9453000C9453000C94530004
:100030000C9453000C9453000C9453000C945300F4
:100040000C9453000C9453000C9453000C945300E4
:100050000C9453000C9453000C9453000C945300D4
:100060000C9453000C9453000C9453000C945300C4
:100070000C9453000C9453000C94530011241FBE95
:10008000CFEFD8E0DEBFCDBF11E0A0E0B1E0ECEBF8
:10009000F1E102C005900D92A033B107D9F70E949B
:1000A000E2060C94DC080C94000080B180B18171F0
:1000B00061F08FEC97E00197F1F700C0000080B18C
:1000C00080B1817111F081E0089580B180B180B17B
:1000D00080E0089580B180B1882339F080B18271C9
:1000E00021F480B180B180E008958FEC97E0019712
:1000F000F1F700C0000080B180B1882319F080B111
:10010000827179F381E0089580B1847141F480B106
:10011000882329F080B180B180B180E008958FEC10
:1001200097E00197F1F700C0000080B1847119F4E5
:1001300080B18111EFCF81E0089580B180B1882333
:1001400039F080B180B1887119F480B180E00895F0
:100150008FEC97E00197F1F700C0000080B180B10B
:10016000882321F080B180B1887179F381E008950E
:1001700080B180B1882329F080B180B180B18073D3
:1001800081F08FEC97E00197F1F700C0000080B19B
:1001900080B1882341F080B180B190B1907381E04B
:1001A00019F480E0089581E0089580B1817161F4CF
:1001B00080B1827149F480B1847131F480B1887169
:1001C00019F480B18073B1F08FE19EE40197F1F7EB
:1001D00000C0000080B1817179F480B1827161F456
:1001E00080B1847149F480B1887131F490B1907319
:1001F00081E019F480E0089581E0089580B1817173
:1002000011F480E022C080B18271D9F380B1847191
:10021000C1F380B18871A9F380B1807391F38FEC41
:1002200097E00197F1F700C0000080B1817149F3B8
:1002300080B1827131F380B1847119F380B188711A
:1002400001F390B1907381E0E1F2089580B184717F
:1002500051F480B1817139F480B1827121F480B19F
:1002600080B180E008958FEC97E00197F1F700C02E
:10027000000080B1847131F480B1817119F480B1D2
:10028000827169F381E0089580B1847151F480B185
:10029000882339F080B180B1887119F480B18073FE
:1002A000A1F08FEC97E00197F1F700C0000080B15A
:1002B000847169F480B1882351F080B180B1887174
:1002C00031F490B1907381E019F480E0089581E0F9
:1002D000089511B88FEF84B90E9459060E94D50085
:1002E0008823E1F30E94550081110BC00E94550044
:1002F000882371F00E945500882341F00E94D606A1
:10030000F9CF0E946A00882389F3F4CF0E945D062A
:100310000E946A00882349F00E946A00882319F02D
:100320000E94C206F9CF0E945D060E9484008823C5
:1003300069F00E948400882339F06DEC7CEC8CEC31
:100340009EE30E943A06F5CF0E945D060E949D0042
:10035000882349F00E949D00882319F00E94B80666
:10036000F9CF0E945D060E94B800882349F00E94E0
:10037000B800882319F00E94CC06F9CF0E945D06D0
:100380000E942601882339F00E94B800811103C021
:100390000E94A306F9CF0E944401882309F49ECF4E
:1003A0000E94550081119ACF60E070E080E09FE3E9
:1003B0000E943A06F5CFCF93DF931F92CDB7DEB7F9
:1003C00011B88FEF84B9CE0101960E943F020E94BE
:1003D00059060E94550081110FC00E9455008823C4
:1003E00081F00E945500811117C00E94550088239A
:1003F00081F30E94CC06F5CF0E946A00882369F33E
:10040000F0CF0E946A00882361F00E946A0088236E
:1004100001F30E94B806F9CF0E946A00882329F3ED
:10042000E8CF0E949D00882339F00E949D00882318
:1004300081F20E94C206F9CF0E94B800811113C058
:100440000E94B800882329F20E94B800811110C0D0
:100450000E94B800811110C060E070E080E09FE36E
:100460000E943A06B6CF0E949D00882349F3ECCF44
:100470000E949D00882361F30E94D606E5CF08956F
:10048000CF93DF93EC0160E070E080E89FE320977A
:1004900069F060E070E080E090E41C161D0634F422
:1004A0009B01AC010E94E8062197F7CFDF91CF9125
:1004B00008952F923F924F925F926F927F928F9208
:1004C0009F92AF92BF92CF92DF92EF92FF921F93D3
:1004D000CF93DF93CDB7DEB7E0970FB6F894DEBFCA
:1004E0000FBECDBF162F1A0180E3E0E0F1E0DE0180
:1004F000119601900D928A95E1F7342F232D443007
:10050000510514F033E020E0832F922F8B3FEFEF63
:100510009E0714F48BEF9FEF0E9440022B013C01D9
:10052000812F8D52990BBC01660F771F660F771FC5
:10053000E1E0F0E0EC0FFD1F6E0F7F1FFB01C080BC
:10054000D180E280F380A7019601C301B2010E942D
:100550004B084B015C0120E030E04CE554E40E9484
:10056000460818160CF442C037FE08C0A3019201D9
:10057000C701B6010E9454074B015C0116BC84B54B
:10058000826684BD85B5846085BD20E030E040E0B2
:1005900054E4C501B4010E944B089B01AC0160E02A
:1005A00074E284EF9AE40E94540720E030E040E8CF
:1005B0005FE30E94E7060E94C60767BDE0960FB69C
:1005C000F894DEBF0FBECDBFDF91CF911F91FF909A
:1005D000EF90DF90CF90BF90AF909F908F907F90E3
:1005E0006F905F904F903F902F900895812C912CA9
:1005F0008CE5A82E84E4B82EC1CF0F931F93CF9320
:10060000DF93EC0141E050E067E30E9459022FEFD5
:1006100083EC99E0215080409040E1F700C0000059
:1006200084B514BC04E010E041E050E060E3CE018A
:100630000E9459022FEF83EC99E0215080409040B6
:10064000E1F700C0000084B514BC41E050E063E372
:10065000CE010E9459022FEF81EE94E0215080409C
:100660009040E1F700C0000084B514BC41E050E0C8
:1006700065E3CE010E9459022FEF81EE94E02150F4
:1006800080409040E1F700C0000084B514BC41E018
:1006900050E067E3CE010E9459022FEF83EC99E00E
:1006A000215080409040E1F700C0000084B514BCA8
:1006B0000150110909F0B8CF03E010E041E050E02B
:1006C00060E3CE010E9459022FEF83EC99E02150A4
:1006D00080409040E1F700C0000084B514BC41E0C8
:1006E00050E064E3CE010E9459022FEF81EE94E0C6
:1006F000215080409040E1F700C0000084B514BC58
:1007000041E050E065E3CE010E9459022FEF81EEF7
:1007100094E0215080409040E1F700C0000084B593
:1007200014BC41E050E067E3CE010E9459022FEF74
:1007300083EC99E0215080409040E1F700C0000038
:1007400084B514BC0150110909F0B8CFDF91CF91E5
:100750001F910F910895CF93DF93EC0150E040E09B
:1007600065E30E9459022FE788E391E02150804021
:100770009040E1F700C0000084B514BC50E040E0B8
:1007800067E3CE010E9459022FE788E391E02150F0
:1007900080409040E1F700C0000084B514BCDF91B8
:1007A000CF91089517BC84B514BC0895CF93DF93FF
:1007B000EC0141E050E060E30E9459022FE78AE13A
:1007C00096E0215080409040E1F700C0000084B5E1
:1007D00014BC41E050E062E3CE010E9459022FE7D1
:1007E0008AE196E0215080409040E1F700C000008F
:1007F00084B514BC41E050E063E3CE010E9459028D
:100800002FEF84E39CE0215080409040E1F700C04E
:10081000000084B514BC8FE493EC0197F1F700C09D
:10082000000041E050E063E3CE010E9459029FE7DF
:100830002AE186E0915020408040E1F700C00000AE
:1008400084B514BC8FE493EC0197F1F700C000006D
:1008500041E050E063E3CE010E9459029FE72AE1A4
:1008600086E0915020408040E1F700C0000084B550
:1008700014BC41E050E062E3CE010E9459029FE7C0
:100880002AE186E0915020408040E1F700C000005E
:1008900084B514BC41E050E060E3CE010E945902EF
:1008A0009FE72AE186E0915020408040E1F700C0B8
:1008B000000084B514BC41E050E06EE2CE010E941D
:1008C00059029FE72AE186E0915020408040E1F7FD
:1008D00000C0000084B514BC8FE493EC0197F1F7DD
:1008E00000C0000041E050E06EE2CE010E945902DB
:1008F0009FE72AE186E0915020408040E1F700C068
:10090000000084B514BC41E050E060E3CE010E94D9
:1009100059029FE72AE186E0915020408040E1F7AC
:1009200000C0000084B514BC9FE728E381E091502B
:1009300020408040E1F700C0000041E050E060E36B
:10094000CE010E9459029FE72AE186E091502040A3
:100950008040E1F700C0000084B514BC41E050E0E5
:1009600067E3CE010E9459029FE72AE186E0915099
:1009700020408040E1F700C0000084B514BC41E095
:1009800050E065E3CE010E9459029FE72AE186E02C
:10099000915020408040E1F700C0000084B514BCB5
:1009A00041E050E063E3CE010E9459029FE72AE153
:1009B00086E0915020408040E1F700C0000084B5FF
:1009C00014BC41E050E060E3CE010E9459029FE771
:1009D0002AE186E0915020408040E1F700C000000D
:1009E00084B514BC41E050E063E3CE010E9459029B
:1009F0009FE72AE186E0915020408040E1F700C067
:100A0000000084B514BC8FE493EC0197F1F700C0AB
:100A1000000041E050E063E3CE010E9459029FE7ED
:100A20002AE186E0915020408040E1F700C00000BC
:100A300084B514BC41E050E065E3CE010E94590248
:100A40009FE72AE186E0915020408040E1F700C016
:100A5000000084B514BC41E050E063E3CE010E9485
:100A600059029FE72AE186E0915020408040E1F75B
:100A700000C0000084B514BC41E050E065E3CE0145
:100A80000E9459029FE72AE186E091502040804071
:100A9000E1F700C0000084B514BC8FE493EC01972B
:100AA000F1F700C0000041E050E065E3CE010E9494
:100AB00059029FE72AE186E0915020408040E1F70B
:100AC00000C0000084B514BC41E050E067E3CE01F3
:100AD0000E9459029FE72AE186E091502040804021
:100AE000E1F700C0000084B514BC8FE493EC0197DB
:100AF000F1F700C0000041E050E067E3CE010E9442
:100B000059029FE72AE186E0915020408040E1F7BA
:100B100000C0000084B514BC41E050E065E3CE01A4
:100B20000E9459029FE72AE186E0915020408040D0
:100B3000E1F700C0000084B514BCDF91CF910895A7
:100B4000F8948FEF8AB981B978940895CF92DF92A3
:100B5000EF92FF9269017A01109285001092840051
:100B600020E030E04FE753E40E944B080E94C607A4
:100B700070E0709389006093880020E030E04FE7D8
:100B800053E4C701B6010E944B080E94C60770E0FB
:100B900070938B0060938A0089EA8093800082E0E2
:100BA0008093810010928200FF90EF90DF90CF90B1
:100BB000089520E030E0A901CA01B9010E94A6050C
:100BC0002FEF83ED90E3215080409040E1F700C08B
:100BD000000020E030E040E85EE3CA01B9010E9475
:100BE000A6052FEF83ED90E3215080409040E1F780
:100BF00000C0000020E030E040E05FE3CA01B9013E
:100C00000E94A6052FEF83ED90E321508040904095
:100C1000E1F700C0000020E030E040E45FE3CA01FB
:100C2000B9010E94A6052FEF83ED90E3215080408B
:100C30009040E1F700C0000020E030E040E85FE3D2
:100C4000CA01B9010E94A6052FEF83ED90E3215060
:100C500080409040E1F700C0000020E030E0A901B2
:100C6000CA01B9010C94A60520EC2BB99B01AC017B
:100C70000C94A6051BB89B01AC010C94A605109220
:100C800085001092840020E030E04FE753E40E949A
:100C90004B080E94C60770E070938900609388003B
:100CA00089EA8093800082E0809381001092820024
:100CB00008958FEF8AB91BB8089520E030E0A901AC
:100CC000CA01B9010C94A6051BB820E030E040E051
:100CD0005FE360E070E0CB010E94A6052FEF89E69C
:100CE00098E1215080409040E1F700C000000C9452
:100CF0005D061BB820E030E040E05FE360E070E0BC
:100D0000CB010E94A6052FEF83ED90E32150804098
:100D10009040E1F700C000000C945D061BB820E095
:100D200030E0A90160E070E080E09FE30E94A6054A
:100D30002FEF89E698E1215080409040E1F700C014
:100D400000000C945D061BB820E030E0A90160E0D3
:100D500070E080E09FE30E94A6052FEF83ED90E313
:100D6000215080409040E1F700C000000C945D06E7
:100D70002AE939E949E15FE36DEC7CEC8CEC9EE318
:100D80000C94A6052AE939E949E95EE36AE979E9BB
:100D900089E19FE30C94A6052AE939E949E15FE37B
:100DA0006AE979E989E99EE30C94A6052DEC3CEC0F
:100DB0004CE45EE36AE979E989E19FE30C94A605D6
:100DC000089508958FEF8AB911B80E9469015058AB
:100DD000BB27AA270E94FF060C940C080E94FE075E
:100DE00038F00E94050820F039F49F3F19F426F4EA
:100DF0000C94FB070EF4E095E7FB0C94F507E92F44
:100E00000E941D0858F3BA176207730784079507F5
:100E100020F079F4A6F50C943F080EF4E0950B2E23
:100E2000BA2FA02D0B01B90190010C01CA01A0013C
:100E30001124FF27591B99F0593F50F4503E68F197
:100E40001A16F040A22F232F342F4427585FF3CFD8
:100E5000469537952795A795F0405395C9F77EF4A9
:100E60001F16BA0B620B730B840BBAF09150A1F0F2
:100E7000FF0FBB1F661F771F881FC2F70EC0BA0F78
:100E8000621F731F841F48F4879577956795B79500
:100E9000F7959E3F08F0B0CF9395880F08F09927FB
:100EA000EE0F9795879508950E9468070C940C089B
:100EB0000E94050858F00E94FE0740F029F45F3FA9
:100EC00029F00C94F50751110C9440080C94FB0781
:100ED0000E941D0868F39923B1F3552391F3951BE4
:100EE000550BBB27AA2762177307840738F09F5F4B
:100EF0005F4F220F331F441FAA1FA9F335D00E2EB8
:100F00003AF0E0E832D091505040E695001CCAF724
:100F10002BD0FE2F29D0660F771F881FBB1F2617E7
:100F200037074807AB07B0E809F0BB0B802DBF01BE
:100F3000FF2793585F4F3AF09E3F510578F00C948D
:100F4000F5070C9440085F3FE4F3983ED4F3869590
:100F500077956795B795F7959F5FC9F7880F911DAE
:100F60009695879597F90895E1E0660F771F881F9A
:100F7000BB1F621773078407BA0720F0621B730B4D
:100F8000840BBA0BEE1F88F7E09508950E942508A0
:100F900088F09F5798F0B92F9927B751B0F0E1F03A
:100FA000660F771F881F991F1AF0BA95C9F714C0EA
:100FB000B13091F00E943F08B1E008950C943F08D1
:100FC000672F782F8827B85F39F0B93FCCF3869523
:100FD00077956795B395D9F73EF490958095709580
:100FE00061957F4F8F4F9F4F089597F99F6780E8D6
:100FF00070E060E008959FEF80EC089500240A946B
:101000001616170618060906089500240A941216E3
:101010001306140605060895092E0394000C11F416
:10102000882352F0BB0F40F4BF2B11F460FF04C0C3
:101030006F5F7F4F8F4F9F4F089557FD9058440F1C
:10104000551F59F05F3F71F04795880F97FB991F27
:1010500061F09F3F79F087950895121613061406E4
:10106000551FF2CF4695F1DF08C016161706180671
:10107000991FF1CF86957105610508940895E8944C
:10108000BB2766277727CB0197F908950E94B808F8
:1010900008F48FEF08950E945E080C940C080E94DB
:1010A000FE0738F00E94050820F0952311F00C94FB
:1010B000F5070C94FB0711240C9440080E941D08AE
:1010C00070F3959FC1F3950F50E0551F629FF0019B
:1010D000729FBB27F00DB11D639FAA27F00DB11DB4
:1010E000AA1F649F6627B00DA11D661F829F22273D
:1010F000B00DA11D621F739FB00DA11D621F839FC4
:10110000A00D611D221F749F3327A00D611D231F99
:10111000849F600D211D822F762F6A2F11249F57E7
:1011200050409AF0F1F088234AF0EE0FFF1FBB1FEA
:10113000661F771F881F91505040A9F79E3F5105A9
:1011400080F00C94F5070C9440085F3FE4F3983E60
:10115000D4F3869577956795B795F795E7959F5F53
:10116000C1F7FE2B880F911D9695879597F90895E5
:10117000990F0008550FAA0BE0E8FEEF16161706A8
:10118000E807F907C0F012161306E407F50798F010
:10119000621B730B840B950B39F40A2661F0232B29
:1011A000242B252B21F408950A2609F4A140A695A5
:0C11B0008FEF811D811D0895F894FFCF82
:1011BC000000DC42F614E94210F1F64213D002436F
:1011CC0060970A4317D5124341901B4354D02443D4
:1011DC00379D2E4349FF38436AFF434300A74F43D3
:00000001FF
