:100000000C943E000C9453000C9453000C94530039
:100010000C9453000C9453000C9453000C94530014
:100020000C9453000C9453000C9453000C94530004
:100030000C9453000C9453000C9453000C945300F4
:100040000C9453000C9453000C9453000C945300E4
:100050000C9453000C9453000C9453000C945300D4
:100060000C9453000C9453000C9453000C945300C4
:100070000C9453000C9453000C94530011241FBE95
:10008000CFEFD8E0DEBFCDBF11E0A0E0B1E0EEEBF6
:10009000F2E102C005900D92A033B107D9F70E949A
:1000A00066070C945D090C94000080B180B18171E9
:1000B00051F08FEC97E00197F1F700C0000080B19C
:1000C00080B1817129F480B180B180B180E0089560
:1000D00081E0089580B180B1882339F080B18271C8
:1000E00021F480B180B180E008958FEC97E0019712
:1000F000F1F700C0000080B180B1882319F080B111
:10010000827179F381E0089580B1847141F480B106
:10011000882329F080B180B180B180E008958FEC10
:1001200097E00197F1F700C0000080B1847119F4E5
:1001300080B18111EFCF81E0089580B180B1882333
:1001400039F080B180B1887119F480B180E00895F0
:100150008FEC97E00197F1F700C0000080B180B10B
:10016000882321F080B180B1887179F381E008950E
:1001700080B180B1882339F080B180B180B18073C3
:1001800011F480E008958FEC97E00197F1F700C03B
:10019000000080B180B1882329F080B180B180B1A6
:1001A000807379F381E0089580B1817171F480B139
:1001B000827159F480B1847141F480B1887129F45D
:1001C00080B1807311F480E008958FE19EE401977F
:1001D000F1F700C0000080B1817161F480B18271DB
:1001E00049F480B1847131F480B1887119F480B11F
:1001F000807349F381E0089580B1817111F480E04A
:1002000022C080B18271D9F380B18471C1F380B111
:100210008871A9F380B1807391F38FEC97E0019717
:10022000F1F700C0000080B1817149F380B18271A3
:1002300031F380B1847119F380B1887101F390B109
:10024000907381E0E1F2089580B1847151F480B13E
:10025000817139F480B1827121F480B180B180E084
:1002600008958FEC97E00197F1F700C0000080B18E
:10027000847131F480B1817119F480B1827169F3B4
:1002800081E0089580B1847161F480B1882349F0E0
:1002900080B180B1887129F480B1807311F480E05D
:1002A00008958FEC97E00197F1F700C0000080B14E
:1002B000847151F480B1882339F080B180B18871A4
:1002C00019F480B1807359F381E00895CF93DF93DF
:1002D0000F92CDB7DEB711B88FEF84B9CE0101967A
:1002E0000E94EE010E94DD060E94D4008823E1F303
:1002F0000E945500811110C00E945500811110C04C
:100300000E946A008823A1F00E946A00882309F4F1
:1003100062C00E944607F8CF0E946A00882361F3FA
:100320000E945500882309F456C00E945A07F8CF4E
:100330000E948400882361F00E948400882309F4CD
:100340004AC06DEC7CEC8CEC9EE30E948E06F4CFF0
:100350000E949D00882341F00E949D00882309F49B
:100360003AC00E943C07F8CF0E94B800882369F089
:100370000E94B800882379F10E9450070E94B800BB
:100380008111F6CF0E94E106F3CF80B1847191F420
:1003900080B1817179F480B1827161F480B180B1F2
:1003A00080B1847171F00E945500811114C00E94C7
:1003B0005007F9CF0E94B80081110DC00E945A0762
:1003C000F9CF80B1882379F380B180B1887159F772
:1003D00080B1807341F70E94E10686CF0895CF93E4
:1003E000DF9300D000D000D0CDB7DEB78D839E83E1
:1003F0002D813E8160E070E080E89FE3232BD1F007
:1004000080E090E42D813E81121613069CF49B013E
:10041000AC0169837A838B839C8369817A818B8128
:100420009C810E9469072D813E81215031093E83C4
:100430002D83E8CF69837A838B839C8369817A815A
:100440008B819C8126960FB6F894DEBF0FBECDBF80
:10045000DF91CF9108958F929F92AF92BF92CF92EA
:10046000DF92EF92FF920F931F93CF93DF93CDB75D
:10047000DEB7E8970FB6F894DEBF0FBECDBF162FDC
:100480006A0180E3E0E0F1E0DE01119601900D9257
:100490008A95E1F7342F2D2D4430510514F033E0C7
:1004A00020E0832F922F8B3FAFEF9A0714F48BEF4E
:1004B0009FEF0E94EF014B015C01E12FED52FF0B1A
:1004C000BF01660F771F660F771F81E090E08C0FEA
:1004D0009D1F680F791FDB018D919D910D90BC913F
:1004E000A02D8DAB9EABAFABB8AF9C01AD0189AA7F
:1004F0009AAAABAABCAA69A97AA98BA99CA90E94AD
:10050000CC087B018C0120E030E04CE554E469AB81
:10051000FAAA8BAB1CAB69A97AA98BA99CA90E94EA
:10052000C70818160CF455C0D7FE0AC09401A501DF
:100530006DA97EA98FA998AD0E94D5077B018C017A
:1005400016BC84B5826684BD85B5846085BD20E017
:1005500030E040E054E4E9AAFAAA0BAB1CAB69A96D
:100560007AA98BA99CA90E94CC089B01AC0160E0F0
:1005700074E284EF9AE40E94D50720E030E040E87E
:100580005FE369AB7AAB8BAB9CAB69A97AA98BA90A
:100590009CA90E94680769AB7AAB8BAB9CAB69A93D
:1005A0007AA98BA99CA90E94470867BDE8960FB657
:1005B000F894DEBF0FBECDBFDF91CF911F910F9199
:1005C000FF90EF90DF90CF90BF90AF909F908F9073
:1005D0000895E12CF12C0CE514E4B2CF0F931F9396
:1005E000CF93DF93D82FC92F41E050E067E30E94FB
:1005F0002B022FEF83EC99E0215080409040E1F7EF
:1006000000C0000084B514BC04E010E041E050E0FC
:1006100060E38D2F9C2F0E942B022FEF83EC99E03B
:10062000215080409040E1F700C0000084B514BC28
:1006300041E050E063E38D2F9C2F0E942B022FEFAF
:1006400081EE94E0215080409040E1F700C000002E
:1006500084B514BC41E050E065E38D2F9C2F0E94CF
:100660002B022FEF81EE94E0215080409040E1F783
:1006700000C0000084B514BC41E050E067E38D2F5A
:100680009C2F0E942B022FEF83EC99E02150804099
:100690009040E1F700C0000084B514BC015011097E
:1006A00009F0B4CF03E010E041E050E060E38D2FAB
:1006B0009C2F0E942B022FEF83EC99E02150804069
:1006C0009040E1F700C0000084B514BC41E050E068
:1006D00064E38D2F9C2F0E942B022FEF81EE94E07C
:1006E000215080409040E1F700C0000084B514BC68
:1006F00041E050E065E38D2F9C2F0E942B022FEFED
:1007000081EE94E0215080409040E1F700C000006D
:1007100084B514BC41E050E067E38D2F9C2F0E940C
:100720002B022FEF83EC99E0215080409040E1F7BD
:1007300000C0000084B514BC0150110909F0B4CF09
:10074000DF91CF911F910F910895CF93DF93D82F11
:10075000C92F50E040E065E30E942B022FE788E3B9
:1007600091E0215080409040E1F700C0000084B546
:1007700014BC50E040E067E38D2F9C2F0E942B02B9
:100780002FE788E391E0215080409040E1F700C0DE
:10079000000084B514BCDF91CF91089517BC84B5D7
:1007A00014BC0895CF93DF93D82FC92F41E050E0B8
:1007B00060E30E942B022FE78AE196E021508040FF
:1007C0009040E1F700C0000084B514BC41E050E067
:1007D00062E38D2F9C2F0E942B022FE78AE196E087
:1007E000215080409040E1F700C0000084B514BC67
:1007F00041E050E063E38D2F9C2F0E942B022FEFEE
:1008000084E39CE0215080409040E1F700C000006C
:1008100084B514BC8FE493EC0197F1F700C000009D
:1008200041E050E063E38D2F9C2F0E942B029FE755
:100830002AE186E0915020408040E1F700C00000AE
:1008400084B514BC8FE493EC0197F1F700C000006D
:1008500041E050E063E38D2F9C2F0E942B029FE725
:100860002AE186E0915020408040E1F700C000007E
:1008700084B514BC41E050E062E38D2F9C2F0E94B0
:100880002B029FE72AE186E0915020408040E1F76B
:1008900000C0000084B514BC41E050E060E38D2F3F
:1008A0009C2F0E942B029FE72AE186E09150204076
:1008B0008040E1F700C0000084B514BC41E050E086
:1008C0006EE28D2F9C2F0E942B029FE72AE186E08B
:1008D000915020408040E1F700C0000084B514BC76
:1008E0008FE493EC0197F1F700C0000041E050E085
:1008F0006EE28D2F9C2F0E942B029FE72AE186E05B
:10090000915020408040E1F700C0000084B514BC45
:1009100041E050E060E38D2F9C2F0E942B029FE767
:100920002AE186E0915020408040E1F700C00000BD
:1009300084B514BC9FE728E381E0915020408040BB
:10094000E1F700C0000041E050E060E38D2F9C2FF4
:100950000E942B029FE72AE186E0915020408040D0
:10096000E1F700C0000084B514BC41E050E067E34B
:100970008D2F9C2F0E942B029FE72AE186E0915049
:1009800020408040E1F700C0000084B514BC41E085
:1009900050E065E38D2F9C2F0E942B029FE72AE1F8
:1009A00086E0915020408040E1F700C0000084B50F
:1009B00014BC41E050E063E38D2F9C2F0E942B027A
:1009C0009FE72AE186E0915020408040E1F700C097
:1009D000000084B514BC41E050E060E38D2F9C2FF3
:1009E0000E942B029FE72AE186E091502040804040
:1009F000E1F700C0000084B514BC41E050E063E3BF
:100A00008D2F9C2F0E942B029FE72AE186E09150B8
:100A100020408040E1F700C0000084B514BC8FE4A2
:100A200093EC0197F1F700C0000041E050E063E370
:100A30008D2F9C2F0E942B029FE72AE186E0915088
:100A400020408040E1F700C0000084B514BC41E0C4
:100A500050E065E38D2F9C2F0E942B029FE72AE137
:100A600086E0915020408040E1F700C0000084B54E
:100A700014BC41E050E063E38D2F9C2F0E942B02B9
:100A80009FE72AE186E0915020408040E1F700C0D6
:100A9000000084B514BC41E050E065E38D2F9C2F2D
:100AA0000E942B029FE72AE186E09150204080407F
:100AB000E1F700C0000084B514BC8FE493EC01970B
:100AC000F1F700C0000041E050E065E38D2F9C2F5E
:100AD0000E942B029FE72AE186E09150204080404F
:100AE000E1F700C0000084B514BC41E050E067E3CA
:100AF0008D2F9C2F0E942B029FE72AE186E09150C8
:100B000020408040E1F700C0000084B514BC8FE4B1
:100B100093EC0197F1F700C0000041E050E067E37B
:100B20008D2F9C2F0E942B029FE72AE186E0915097
:100B300020408040E1F700C0000084B514BC41E0D3
:100B400050E065E38D2F9C2F0E942B029FE72AE146
:100B500086E0915020408040E1F700C0000084B55D
:100B600014BCDF91CF910895F8948FEF8AB981B9C1
:100B7000789408950F931F93CF93DF9300D000D004
:100B800000D0CDB7DEB789014E835D83109285001A
:100B90001092840020E030E04FE753E469837A83C9
:100BA0008B839C8369817A818B819C810E94CC0894
:100BB00069837A838B839C8369817A818B819C8111
:100BC0000E94470870E0709389006093880020E0DD
:100BD00030E04FE753E409831A838E818B838D8144
:100BE0008C8369817A818B819C810E94CC08698386
:100BF0007A838B839C8369817A818B819C810E941B
:100C0000470870E070938B0060938A0089EA8093B4
:100C1000800082E0809381001092820026960FB6B9
:100C2000F894DEBF0FBECDBFDF91CF911F910F9122
:100C3000089520E030E0A901CA01B9010E94BA0577
:100C40002FEF83ED90E3215080409040E1F700C00A
:100C5000000020E030E040E85EE3CA01B9010E94F4
:100C6000BA052FEF83ED90E3215080409040E1F7EB
:100C700000C0000020E030E040E05FE3CA01B901BD
:100C80000E94BA052FEF83ED90E321508040904001
:100C9000E1F700C0000020E030E040E45FE3CA017B
:100CA000B9010E94BA052FEF83ED90E321508040F7
:100CB0009040E1F700C0000020E030E040E85FE352
:100CC000CA01B9010E94BA052FEF83ED90E32150CC
:100CD00080409040E1F700C0000020E030E0A90132
:100CE000CA01B9010C94BA05CF93DF9300D000D0AC
:100CF000CDB7DEB720EC2BB99B01AC0169837A83B9
:100D00008B839C8369817A818B819C810F900F906A
:100D10000F900F90DF91CF910C94BA05CF93DF9392
:100D200000D000D0CDB7DEB71BB89B01AC01698302
:100D30007A838B839C8369817A818B819C810F90DC
:100D40000F900F900F90DF91CF910C94BA05CF9335
:100D5000DF9300D000D0CDB7DEB71092850010929F
:100D6000840020E030E04FE753E469837A838B838B
:100D70009C8369817A818B819C810E94CC086983E4
:100D80007A838B839C8369817A818B819C810E9489
:100D9000470870E0709389006093880089EA809327
:100DA000800082E080938100109282000F900F906B
:100DB0000F900F90DF91CF9108958FEF8AB91BB8F4
:100DC000089520E030E0A901CA01B9010C94BA05E8
:100DD0001BB820E030E040E05FE360E070E0CB0172
:100DE0000E94BA052FEF89E698E12150804090409B
:100DF000E1F700C000000C94E1061BB820E030E0F1
:100E000040E05FE360E070E0CB010E94BA052FEFA5
:100E100083ED90E3215080409040E1F700C0000056
:100E20000C94E1061BB820E030E0A90160E070E01E
:100E300080E09FE30E94BA052FEF89E698E12150F8
:100E400080409040E1F700C000000C94E1061BB820
:100E500020E030E0A90160E070E080E09FE30E94C4
:100E6000BA052FEF83ED90E3215080409040E1F7E9
:100E700000C000000C94E10620E030E040E05FE3B9
:100E80006AE979E989E99EE30C94BA052AE939E926
:100E900049E95EE360E070E080E09FE30C94BA050E
:100EA00023E333E343E35FE36DEC7CEC8CE49EE30C
:100EB0000C94BA052DEC3CEC4CE45EE363E373E385
:100EC00083E39FE30C94BA05089508950E94660198
:100ED0005058BB27AA270E9480070C948D080E94B7
:100EE0007F0838F00E94860820F039F49F3F19F4FB
:100EF00026F40C947C080EF4E095E7FB0C9476083D
:100F0000E92F0E949E0858F3BA17620773078407F7
:100F1000950720F079F4A6F50C94C0080EF4E0953E
:100F20000B2EBA2FA02D0B01B90190010C01CA01A3
:100F3000A0011124FF27591B99F0593F50F4503E4E
:100F400068F11A16F040A22F232F342F4427585F40
:100F5000F3CF469537952795A795F0405395C9F758
:100F60007EF41F16BA0B620B730B840BBAF0915010
:100F7000A1F0FF0FBB1F661F771F881FC2F70EC0AF
:100F8000BA0F621F731F841F48F487957795679582
:100F9000B795F7959E3F08F0B0CF9395880F08F06E
:100FA0009927EE0F9795879508950E94E9070C946D
:100FB0008D080E94860858F00E947F0840F029F4AE
:100FC0005F3F29F00C94760851110C94C1080C94E1
:100FD0007C080E949E0868F39923B1F3552391F38E
:100FE000951B550BBB27AA2762177307840738F098
:100FF0009F5F5F4F220F331F441FAA1FA9F335D0F5
:101000000E2E3AF0E0E832D091505040E695001CA8
:10101000CAF72BD0FE2F29D0660F771F881FBB1F62
:10102000261737074807AB07B0E809F0BB0B802D40
:10103000BF01FF2793585F4F3AF09E3F510578F06C
:101040000C9476080C94C1085F3FE4F3983ED4F307
:10105000869577956795B795F7959F5FC9F7880F40
:10106000911D9695879597F90895E1E0660F771F92
:10107000881FBB1F621773078407BA0720F0621B23
:10108000730B840BBA0BEE1F88F7E09508950E944E
:10109000A60888F09F5798F0B92F9927B751B0F05C
:1010A000E1F0660F771F881F991F1AF0BA95C9F7EC
:1010B00014C0B13091F00E94C008B1E008950C94C2
:1010C000C008672F782F8827B85F39F0B93FCCF375
:1010D000869577956795B395D9F73EF49095809569
:1010E000709561957F4F8F4F9F4F089597F99F6738
:1010F00080E870E060E008959FEF80EC08950024A0
:101100000A941616170618060906089500240A946C
:1011100012161306140605060895092E0394000CF2
:1011200011F4882352F0BB0F40F4BF2B11F460FF81
:1011300004C06F5F7F4F8F4F9F4F089557FD9058AA
:10114000440F551F59F05F3F71F04795880F97FB8B
:10115000991F61F09F3F79F0879508951216130645
:101160001406551FF2CF4695F1DF08C01616170674
:101170001806991FF1CF86957105610508940895A9
:10118000E894BB2766277727CB0197F908950E943B
:10119000390908F48FEF08950E94DF080C948D0838
:1011A0000E947F0838F00E94860820F0952311F0F5
:1011B0000C9476080C947C0811240C94C1080E94AD
:1011C0009E0870F3959FC1F3950F50E0551F629FE5
:1011D000F001729FBB27F00DB11D639FAA27F00D90
:1011E000B11DAA1F649F6627B00DA11D661F829FB7
:1011F0002227B00DA11D621F739FB00DA11D621F9C
:10120000839FA00D611D221F749F3327A00D611DB8
:10121000231F849F600D211D822F762F6A2F11249A
:101220009F5750409AF0F1F088234AF0EE0FFF1FCD
:10123000BB1F661F771F881F91505040A9F79E3F24
:10124000510580F00C9476080C94C1085F3FE4F3DC
:10125000983ED4F3869577956795B795F795E7957A
:101260009F5FC1F7FE2B880F911D9695879597F983
:101270000895990F0008550FAA0BE0E8FEEF161627
:101280001706E807F907C0F012161306E407F5077A
:1012900098F0621B730B840B950B39F40A2661F0EE
:1012A000232B242B252B21F408950A2609F4A14091
:0E12B000A6958FEF811D811D0895F894FFCF44
:1012BE000000DC42F614E94210F1F64213D002436C
:1012CE0060970A4317D5124341901B4354D02443D1
:1012DE00379D2E4349FF38436AFF434300A74F43D0
:00000001FF
