:100000000C943E000C94C5000C9450000C945000CD
:100010000C9450000C9450000C9450000C94500020
:100020000C9450000C9450000C9450000C94500010
:100030000C9450000C94BF000C9450000C94500091
:100040000C9450000C9450000C9450000C945000F0
:100050000C9450000C9450000C9450000C945000E0
:100060000C9450000C9450000C9450000C945000D0
:100070000C9450000C9450000C94500011241FBE9E
:10008000CFEFD8E0DEBFCDBF21E0A0E0B1E001C0FE
:100090001D92A430B207E1F70E94E1000C94130115
:1000A0000C9400008FEF81B984B987B91AB8E89A27
:1000B000E9E6F0E080818160808378940895109271
:1000C0000301109285001092840090938900809320
:1000D000880080EC809380008BE0809381001092F8
:1000E000820082E080936F0008958230E9F118F574
:1000F000882321F180E091E02091000130910101FD
:100100003695279582171306C8F595B93FE74CEF4A
:100110002AE0315040402040E1F700C0000015B80F
:100120003FE748E321E0315040402040E1F700C084
:1001300000008F5FE1CF833001F1089582E085B93F
:100140002FEF34E34CE0215030404040E1F700C055
:10015000000015B88FEF93ED20E3815090402040D0
:10016000E1F700C00000089585B93FEF49E688E156
:10017000315040408040E1F7F4CF15B808958F9397
:1001800081E0809303018F9118951F921FB61F92F3
:1001900011248F939F938091020181110FC081E000
:1001A000809302018FE59AEE0197F1F700C00000FD
:1001B0009F918F911F901FBE1F9018951092020162
:1001C000F1CF0E945200809102018130E1F78091CD
:1001D00002018130C9F480910001909101018837BA
:1001E000910591F084ED90E30E945F0080910301FE
:1001F0008823E1F380910001909101010196909391
:10020000010180930001E3CF80E00E94750081E04E
:100210000E94750082E00E94750083E00E947500D4
:0A02200090E080E00895F894FFCF0D
:00000001FF
