:100000000C943E000C9448000C9448000C9448005A
:100010000C9448000C9448000C9448000C94480040
:100020000C9448000C9448000C9448000C94480030
:100030000C9448000C9448000C9448000C94480020
:100040000C9448000C9448000C9448000C94480010
:100050000C9448000C9448000C9448000C94480000
:100060000C9448000C9448000C9448000C944800F0
:100070000C9448000C9448000C94480011241FBEB6
:10008000CFEFD8E0DEBFCDBF0E9477000C94AB006D
:100090000C94000010927C0086E880937A0008950A
:1000A00010927A00089580917C00807E80937C007D
:1000B00080917C006770682B60937C0080917A004F
:1000C000806480937A0080917A0084FFFCCF8091D5
:1000D0007A00806180937A00209178009091790075
:1000E000892F90E0982F8827820F911D08950F92F5
:1000F000CDB7DEB711B88FEF84B9CE0101960E945B
:100100004A0060E0CE0101960E94530012E001E037
:1001100060E0CE0101960E9453009BE1980F993157
:1001200010F405B9F5CF9FEF980F903910F415B979
:10013000EFCF8159843560F705B98FE097E20197D9
:10014000F1F700C0000015B98FE19EE40197F1F7C7
:0A01500000C00000DDCFF894FFCFDF
:00000001FF
