:100000000C943E000C9448000C9448000C9448005A
:100010000C9448000C9448000C9448000C94480040
:100020000C9448000C9448000C9448000C94480030
:100030000C9448000C9448000C9448000C94480020
:100040000C9448000C9448000C9448000C94480010
:100050000C9448000C9448000C9448000C94480000
:100060000C9448000C9448000C9448000C944800F0
:100070000C9448000C9448000C94480011241FBEB6
:10008000CFEFD8E0DEBFCDBF0E944A000C947100D4
:100090000C9400008FEF8AB930E020E061E040ED81
:1000A00057E080ED97E01BB80197E9F790E080E01A
:1000B0008217930719F06BB90196FACFE9EFF0E0D8
:1000C0003197F1F700C000004150510951F79C01F0
:1000D00026503F4F203DF7E03F0709F790E080E0D2
:0600E0000895F894FFCF23
:00000001FF
